{
  "address": "0xc827482a5F57132dCC0511901caC9243C35DdB33",
  "abi": [
    {
      "inputs": [
        {
          "internalType": "address",
          "name": "tokenAddress",
          "type": "address"
        }
      ],
      "stateMutability": "nonpayable",
      "type": "constructor"
    },
    {
      "anonymous": false,
      "inputs": [
        {
          "indexed": false,
          "internalType": "address",
          "name": "buyer",
          "type": "address"
        },
        {
          "indexed": false,
          "internalType": "uint256",
          "name": "amountOfETH",
          "type": "uint256"
        },
        {
          "indexed": false,
          "internalType": "uint256",
          "name": "amountOfTokens",
          "type": "uint256"
        }
      ],
      "name": "BuyTokens",
      "type": "event"
    },
    {
      "anonymous": false,
      "inputs": [
        {
          "indexed": true,
          "internalType": "address",
          "name": "previousOwner",
          "type": "address"
        },
        {
          "indexed": true,
          "internalType": "address",
          "name": "newOwner",
          "type": "address"
        }
      ],
      "name": "OwnershipTransferred",
      "type": "event"
    },
    {
      "anonymous": false,
      "inputs": [
        {
          "indexed": false,
          "internalType": "address",
          "name": "seller",
          "type": "address"
        },
        {
          "indexed": false,
          "internalType": "uint256",
          "name": "amountOfETH",
          "type": "uint256"
        },
        {
          "indexed": false,
          "internalType": "uint256",
          "name": "amountOfTokens",
          "type": "uint256"
        }
      ],
      "name": "SellTokens",
      "type": "event"
    },
    {
      "inputs": [],
      "name": "buyTokens",
      "outputs": [],
      "stateMutability": "payable",
      "type": "function"
    },
    {
      "inputs": [],
      "name": "owner",
      "outputs": [
        {
          "internalType": "address",
          "name": "",
          "type": "address"
        }
      ],
      "stateMutability": "view",
      "type": "function"
    },
    {
      "inputs": [],
      "name": "renounceOwnership",
      "outputs": [],
      "stateMutability": "nonpayable",
      "type": "function"
    },
    {
      "inputs": [
        {
          "internalType": "uint256",
          "name": "amount",
          "type": "uint256"
        }
      ],
      "name": "sellTokens",
      "outputs": [],
      "stateMutability": "nonpayable",
      "type": "function"
    },
    {
      "inputs": [],
      "name": "tokensPerEth",
      "outputs": [
        {
          "internalType": "uint256",
          "name": "",
          "type": "uint256"
        }
      ],
      "stateMutability": "view",
      "type": "function"
    },
    {
      "inputs": [
        {
          "internalType": "address",
          "name": "newOwner",
          "type": "address"
        }
      ],
      "name": "transferOwnership",
      "outputs": [],
      "stateMutability": "nonpayable",
      "type": "function"
    },
    {
      "inputs": [],
      "name": "withdraw",
      "outputs": [],
      "stateMutability": "nonpayable",
      "type": "function"
    },
    {
      "inputs": [],
      "name": "withdrawTokens",
      "outputs": [],
      "stateMutability": "nonpayable",
      "type": "function"
    }
  ],
  "transactionHash": "0x38cc9217c49f930c4642110ed6ab55b6a48e4f6d7712d1a96589f38e361a461e",
  "args": [
    "0xa2c00b353c0E07991be3aCe2A88b587F90B8DA5D"
  ],
  "numDeployments": 1,
  "solcInputHash": "8e92f81bb65b51f9582d65ad8a8131ea",
  "bytecode": "0x608060405234801561001057600080fd5b50604051610c45380380610c4583398101604081905261002f916100ad565b6100383361005d565b600180546001600160a01b0319166001600160a01b03929092169190911790556100db565b600080546001600160a01b038381166001600160a01b0319831681178455604051919092169283917f8be0079c531659141344cd1fd0a4f28419497f9722a3daafe3b4186f6b6457e09190a35050565b6000602082840312156100be578081fd5b81516001600160a01b03811681146100d4578182fd5b9392505050565b610b5b806100ea6000396000f3fe60806040526004361061007b5760003560e01c80638da5cb5b1161004e5780638da5cb5b146100e1578063cbdd69b51461010e578063d0febe4c14610132578063f2fde38b1461013a57600080fd5b80633ccfd60b146100805780636c11bcd314610097578063715018a6146100b75780638d8f2adb146100cc575b600080fd5b34801561008c57600080fd5b5061009561015a565b005b3480156100a357600080fd5b506100956100b2366004610aaa565b610202565b3480156100c357600080fd5b50610095610518565b3480156100d857600080fd5b5061009561052c565b3480156100ed57600080fd5b506000546040516001600160a01b0390911681526020015b60405180910390f35b34801561011a57600080fd5b506101246103e881565b604051908152602001610105565b610095610718565b34801561014657600080fd5b50610095610155366004610a5c565b61093c565b6101626109b2565b604051600090339047908381818185875af1925050503d80600081146101a4576040519150601f19603f3d011682016040523d82523d6000602084013e6101a9565b606091505b50509050806101ff5760405162461bcd60e51b815260206004820152601b60248201527f4661696c656420746f2073656e64204e617469766520546f6b656e000000000060448201526064015b60405180910390fd5b50565b600081116102495760405162461bcd60e51b815260206004820152601460248201527321b0b713ba1039b2b6361018103a37b5b2b7399760611b60448201526064016101f6565b6001546040516370a0823160e01b815233600482015282916001600160a01b0316906370a082319060240160206040518083038186803b15801561028c57600080fd5b505afa1580156102a0573d6000803e3d6000fd5b505050506040513d601f19601f820116820180604052508101906102c49190610ac2565b10156103205760405162461bcd60e51b815260206004820152602560248201527f596f7520646f6e2774206861766520656e6f75676820746f6b656e7320746f2060448201526439b2b6361760d91b60648201526084016101f6565b61032c6103e882610ada565b4710156103915760405162461bcd60e51b815260206004820152602d60248201527f56656e646f722072616e206f7574206f66204e617469766520546f6b656e207460448201526c3790313abc903a37b5b2b7399760991b60648201526084016101f6565b6000336103a06103e884610ada565b604051600081818185875af1925050503d80600081146103dc576040519150601f19603f3d011682016040523d82523d6000602084013e6103e1565b606091505b50509050806104325760405162461bcd60e51b815260206004820152601b60248201527f4661696c656420746f2073656e64204e617469766520546f6b656e000000000060448201526064016101f6565b6001546040516323b872dd60e01b8152336004820152306024820152604481018490526001600160a01b03909116906323b872dd90606401602060405180830381600087803b15801561048457600080fd5b505af1158015610498573d6000803e3d6000fd5b505050506040513d601f19601f820116820180604052508101906104bc9190610a8a565b507fa24838acd4af5195a2396965dae5abf54e84e8c19f5698bb966ae64e29994ee5336104eb6103e885610ada565b604080516001600160a01b0390931683526020830191909152810184905260600160405180910390a15050565b6105206109b2565b61052a6000610a0c565b565b6105346109b2565b6001546040516370a0823160e01b81523060048201526000916001600160a01b0316906370a082319060240160206040518083038186803b15801561057857600080fd5b505afa15801561058c573d6000803e3d6000fd5b505050506040513d601f19601f820116820180604052508101906105b09190610ac2565b10156106155760405162461bcd60e51b815260206004820152602e60248201527f56656e646f7220646f65736e2774206861766520656e6f75676820746f6b656e60448201526d39903a37903bb4ba34323930bb9760911b60648201526084016101f6565b6001546040516370a0823160e01b81523060048201526001600160a01b039091169063a9059cbb90339083906370a082319060240160206040518083038186803b15801561066257600080fd5b505afa158015610676573d6000803e3d6000fd5b505050506040513d601f19601f8201168201806040525081019061069a9190610ac2565b6040516001600160e01b031960e085901b1681526001600160a01b0390921660048301526024820152604401602060405180830381600087803b1580156106e057600080fd5b505af11580156106f4573d6000803e3d6000fd5b505050506040513d601f19601f820116820180604052508101906101ff9190610a8a565b6000341161075e5760405162461bcd60e51b815260206004820152601360248201527221b0b713ba10313abc9018103a37b5b2b7399760691b60448201526064016101f6565b61076a346103e8610afa565b6001546040516370a0823160e01b81523060048201526001600160a01b03909116906370a082319060240160206040518083038186803b1580156107ad57600080fd5b505afa1580156107c1573d6000803e3d6000fd5b505050506040513d601f19601f820116820180604052508101906107e59190610ac2565b10156108465760405162461bcd60e51b815260206004820152602a60248201527f56656e646f7220646f65736e2774206861766520656e6f75676820746f6b656e60448201526939903a379039b2b6361760b11b60648201526084016101f6565b6001546001600160a01b031663a9059cbb33610864346103e8610afa565b6040516001600160e01b031960e085901b1681526001600160a01b0390921660048301526024820152604401602060405180830381600087803b1580156108aa57600080fd5b505af11580156108be573d6000803e3d6000fd5b505050506040513d601f19601f820116820180604052508101906108e29190610a8a565b507f0a37b72bb67eee30e09084cf386f8a17817c57f620c3ab95fb25d6a20356ec773334610912816103e8610afa565b604080516001600160a01b03909416845260208401929092529082015260600160405180910390a1565b6109446109b2565b6001600160a01b0381166109a95760405162461bcd60e51b815260206004820152602660248201527f4f776e61626c653a206e6577206f776e657220697320746865207a65726f206160448201526564647265737360d01b60648201526084016101f6565b6101ff81610a0c565b6000546001600160a01b0316331461052a5760405162461bcd60e51b815260206004820181905260248201527f4f776e61626c653a2063616c6c6572206973206e6f7420746865206f776e657260448201526064016101f6565b600080546001600160a01b038381166001600160a01b0319831681178455604051919092169283917f8be0079c531659141344cd1fd0a4f28419497f9722a3daafe3b4186f6b6457e09190a35050565b600060208284031215610a6d578081fd5b81356001600160a01b0381168114610a83578182fd5b9392505050565b600060208284031215610a9b578081fd5b81518015158114610a83578182fd5b600060208284031215610abb578081fd5b5035919050565b600060208284031215610ad3578081fd5b5051919050565b600082610af557634e487b7160e01b81526012600452602481fd5b500490565b6000816000190483118215151615610b2057634e487b7160e01b81526011600452602481fd5b50029056fea264697066735822122020d8c75af8728fbf173fc619be13289ba94f58d88a40832d791e15da0ca2bcf164736f6c63430008040033",
  "devdoc": {
    "kind": "dev",
    "methods": {
      "owner()": {
        "details": "Returns the address of the current owner."
      },
      "renounceOwnership()": {
        "details": "Leaves the contract without owner. It will not be possible to call `onlyOwner` functions anymore. Can only be called by the current owner. NOTE: Renouncing ownership will leave the contract without an owner, thereby removing any functionality that is only available to the owner."
      },
      "transferOwnership(address)": {
        "details": "Transfers ownership of the contract to a new account (`newOwner`). Can only be called by the current owner."
      }
    },
    "version": 1
  },
  "userdoc": {
    "kind": "user",
    "methods": {},
    "version": 1
  },
  "storageLayout": {
    "storage": [
      {
        "astId": 7,
        "contract": "contracts/Vendor.sol:Vendor",
        "label": "_owner",
        "offset": 0,
        "slot": "0",
        "type": "t_address"
      },
      {
        "astId": 833,
        "contract": "contracts/Vendor.sol:Vendor",
        "label": "yourToken",
        "offset": 0,
        "slot": "1",
        "type": "t_contract(YourToken)1075"
      }
    ],
    "types": {
      "t_address": {
        "encoding": "inplace",
        "label": "address",
        "numberOfBytes": "20"
      },
      "t_contract(YourToken)1075": {
        "encoding": "inplace",
        "label": "contract YourToken",
        "numberOfBytes": "20"
      }
    }
  }
}